{
  "address": "0xBdA573328da513AaFe7FE5e54A5D315C765E95Fb",
  "abi": [
    {
      "inputs": [
        {
          "internalType": "address",
          "name": "_attestationStation",
          "type": "address"
        },
        {
          "internalType": "uint256",
          "name": "_minimumAttestationScore",
          "type": "uint256"
        },
        {
          "internalType": "address",
          "name": "_gnosisSafe",
          "type": "address"
        },
        {
          "internalType": "address",
          "name": "_usdc",
          "type": "address"
        }
      ],
      "stateMutability": "nonpayable",
      "type": "constructor"
    },
    {
      "anonymous": false,
      "inputs": [
        {
          "indexed": true,
          "internalType": "uint256",
          "name": "campaignId",
          "type": "uint256"
        },
        {
          "indexed": true,
          "internalType": "address",
          "name": "charity",
          "type": "address"
        },
        {
          "indexed": false,
          "internalType": "string",
          "name": "title",
          "type": "string"
        },
        {
          "indexed": false,
          "internalType": "string",
          "name": "description",
          "type": "string"
        },
        {
          "indexed": false,
          "internalType": "uint256",
          "name": "targetAmount",
          "type": "uint256"
        },
        {
          "indexed": false,
          "internalType": "uint256",
          "name": "deadline",
          "type": "uint256"
        }
      ],
      "name": "CampaignCreated",
      "type": "event"
    },
    {
      "anonymous": false,
      "inputs": [
        {
          "indexed": true,
          "internalType": "uint256",
          "name": "campaignId",
          "type": "uint256"
        },
        {
          "indexed": false,
          "internalType": "uint256",
          "name": "amount",
          "type": "uint256"
        }
      ],
      "name": "CampaignFunded",
      "type": "event"
    },
    {
      "anonymous": false,
      "inputs": [
        {
          "indexed": true,
          "internalType": "address",
          "name": "charity",
          "type": "address"
        },
        {
          "indexed": false,
          "internalType": "bool",
          "name": "eligible",
          "type": "bool"
        }
      ],
      "name": "CharityEligibilityUpdated",
      "type": "event"
    },
    {
      "anonymous": false,
      "inputs": [
        {
          "indexed": true,
          "internalType": "address",
          "name": "previousOwner",
          "type": "address"
        },
        {
          "indexed": true,
          "internalType": "address",
          "name": "newOwner",
          "type": "address"
        }
      ],
      "name": "OwnershipTransferred",
      "type": "event"
    },
    {
      "inputs": [],
      "name": "FINANCIAL_STATEMENTS_KEY",
      "outputs": [
        {
          "internalType": "bytes32",
          "name": "",
          "type": "bytes32"
        }
      ],
      "stateMutability": "view",
      "type": "function"
    },
    {
      "inputs": [],
      "name": "MISSION_STATEMENT_KEY",
      "outputs": [
        {
          "internalType": "bytes32",
          "name": "",
          "type": "bytes32"
        }
      ],
      "stateMutability": "view",
      "type": "function"
    },
    {
      "inputs": [],
      "name": "REGISTRATION_KEY",
      "outputs": [
        {
          "internalType": "bytes32",
          "name": "",
          "type": "bytes32"
        }
      ],
      "stateMutability": "view",
      "type": "function"
    },
    {
      "inputs": [],
      "name": "TAX_EXEMPT_STATUS_KEY",
      "outputs": [
        {
          "internalType": "bytes32",
          "name": "",
          "type": "bytes32"
        }
      ],
      "stateMutability": "view",
      "type": "function"
    },
    {
      "inputs": [],
      "name": "attestationStation",
      "outputs": [
        {
          "internalType": "contract IAttestationStation",
          "name": "",
          "type": "address"
        }
      ],
      "stateMutability": "view",
      "type": "function"
    },
    {
      "inputs": [
        {
          "internalType": "uint256",
          "name": "",
          "type": "uint256"
        }
      ],
      "name": "campaigns",
      "outputs": [
        {
          "internalType": "address payable",
          "name": "charity",
          "type": "address"
        },
        {
          "internalType": "string",
          "name": "title",
          "type": "string"
        },
        {
          "internalType": "string",
          "name": "description",
          "type": "string"
        },
        {
          "internalType": "uint256",
          "name": "targetAmount",
          "type": "uint256"
        },
        {
          "internalType": "uint256",
          "name": "currentAmount",
          "type": "uint256"
        },
        {
          "internalType": "uint256",
          "name": "deadline",
          "type": "uint256"
        },
        {
          "internalType": "bool",
          "name": "active",
          "type": "bool"
        }
      ],
      "stateMutability": "view",
      "type": "function"
    },
    {
      "inputs": [
        {
          "internalType": "address",
          "name": "",
          "type": "address"
        }
      ],
      "name": "charityScores",
      "outputs": [
        {
          "internalType": "uint256",
          "name": "",
          "type": "uint256"
        }
      ],
      "stateMutability": "view",
      "type": "function"
    },
    {
      "inputs": [
        {
          "internalType": "address",
          "name": "_charity",
          "type": "address"
        },
        {
          "internalType": "string",
          "name": "_title",
          "type": "string"
        },
        {
          "internalType": "string",
          "name": "_description",
          "type": "string"
        },
        {
          "internalType": "uint256",
          "name": "_targetAmount",
          "type": "uint256"
        },
        {
          "internalType": "uint256",
          "name": "_deadline",
          "type": "uint256"
        }
      ],
      "name": "createCampaign",
      "outputs": [],
      "stateMutability": "nonpayable",
      "type": "function"
    },
    {
      "inputs": [
        {
          "internalType": "address",
          "name": "_charity",
          "type": "address"
        }
      ],
      "name": "isCharityEligible",
      "outputs": [
        {
          "internalType": "bool",
          "name": "",
          "type": "bool"
        }
      ],
      "stateMutability": "view",
      "type": "function"
    },
    {
      "inputs": [],
      "name": "minimumAttestationScore",
      "outputs": [
        {
          "internalType": "uint256",
          "name": "",
          "type": "uint256"
        }
      ],
      "stateMutability": "view",
      "type": "function"
    },
    {
      "inputs": [],
      "name": "nextCampaignId",
      "outputs": [
        {
          "internalType": "uint256",
          "name": "",
          "type": "uint256"
        }
      ],
      "stateMutability": "view",
      "type": "function"
    },
    {
      "inputs": [],
      "name": "owner",
      "outputs": [
        {
          "internalType": "address",
          "name": "",
          "type": "address"
        }
      ],
      "stateMutability": "view",
      "type": "function"
    },
    {
      "inputs": [],
      "name": "renounceOwnership",
      "outputs": [],
      "stateMutability": "nonpayable",
      "type": "function"
    },
    {
      "inputs": [
        {
          "internalType": "uint256",
          "name": "_minimumAttestationScore",
          "type": "uint256"
        }
      ],
      "name": "setMinimumAttestationScore",
      "outputs": [],
      "stateMutability": "nonpayable",
      "type": "function"
    },
    {
      "inputs": [
        {
          "internalType": "address",
          "name": "newOwner",
          "type": "address"
        }
      ],
      "name": "transferOwnership",
      "outputs": [],
      "stateMutability": "nonpayable",
      "type": "function"
    },
    {
      "inputs": [
        {
          "internalType": "address",
          "name": "_charity",
          "type": "address"
        }
      ],
      "name": "updateCharityScore",
      "outputs": [],
      "stateMutability": "nonpayable",
      "type": "function"
    },
    {
      "inputs": [],
      "name": "usdc",
      "outputs": [
        {
          "internalType": "contract IERC20",
          "name": "",
          "type": "address"
        }
      ],
      "stateMutability": "view",
      "type": "function"
    },
    {
      "inputs": [
        {
          "internalType": "uint256",
          "name": "_campaignId",
          "type": "uint256"
        }
      ],
      "name": "withdraw",
      "outputs": [],
      "stateMutability": "nonpayable",
      "type": "function"
    }
  ],
  "transactionHash": "0x8e885bbcb101233314f8086043a10c8a1f0344c4da1c469d38e9362dbe65dfff",
  "args": [
    "0xEE36eaaD94d1Cc1d0eccaDb55C38bFfB6Be06C77",
    50,
    "0x9f24e4bc9c4f609706a14ea154b4504c02889c97",
    "0xDc9bed60Bb580F4601a10974934f1eAcBc8Ac409"
  ],
  "numDeployments": 1,
  "solcInputHash": "c59e5d9a4136e2f30ee9632d01fa5175",
  "bytecode": "0x608060405260016005553480156200001657600080fd5b506040516200158d3803806200158d8339810160408190526200003991620001dc565b62000044336200008e565b600180546001600160a01b038087166001600160a01b031992831617909255600385905560028054928416929091169190911790556200008482620000de565b5050505062000230565b600080546001600160a01b038381166001600160a01b0319831681178455604051919092169283917f8be0079c531659141344cd1fd0a4f28419497f9722a3daafe3b4186f6b6457e09190a35050565b620000e862000161565b6001600160a01b038116620001535760405162461bcd60e51b815260206004820152602660248201527f4f776e61626c653a206e6577206f776e657220697320746865207a65726f206160448201526564647265737360d01b60648201526084015b60405180910390fd5b6200015e816200008e565b50565b6000546001600160a01b03163314620001bd5760405162461bcd60e51b815260206004820181905260248201527f4f776e61626c653a2063616c6c6572206973206e6f7420746865206f776e657260448201526064016200014a565b565b80516001600160a01b0381168114620001d757600080fd5b919050565b60008060008060808587031215620001f357600080fd5b620001fe85620001bf565b9350602085015192506200021560408601620001bf565b91506200022560608601620001bf565b905092959194509250565b61134d80620002406000396000f3fe608060405234801561001057600080fd5b50600436106101165760003560e01c8063715018a6116100a2578063ab05b75711610071578063ab05b75714610256578063b191f5321461027d578063c5500421146102a4578063d2009a27146102e4578063f2fde38b1461030b57600080fd5b8063715018a61461020d57806372c0b64e146102155780637903a7561461023c5780638da5cb5b1461024557600080fd5b80632e1a7d4d116100e95780632e1a7d4d146101a05780633e413bee146101b35780634d17c740146101de5780635de55637146101f157806365a0aee2146101fa57600080fd5b8063075843c31461011b578063141961bc14610130578063274481761461015f5780632dec1b4b1461018d575b600080fd5b61012e610129366004610ec5565b61031e565b005b61014361013e366004610f4b565b610588565b6040516101569796959493929190610fc0565b60405180910390f35b61017f61016d36600461101f565b60046020526000908152604090205481565b604051908152602001610156565b61012e61019b36600461101f565b6106e1565b61012e6101ae366004610f4b565b610a12565b6002546101c6906001600160a01b031681565b6040516001600160a01b039091168152602001610156565b61012e6101ec366004610f4b565b600355565b61017f60035481565b6001546101c6906001600160a01b031681565b61012e610c4c565b61017f7f3e5f59afb28eefd9525b5a2a3e685a733e99fa16aeacdb37152ea65d9b1b423d81565b61017f60055481565b6000546001600160a01b03166101c6565b61017f7f60ecd1bdb09484e1247f8c79f400cc78f8ff2b8bc010a2332aba54e28a3339c681565b61017f7f13b35f1f951b0047acda6ce2a2e67dfca07ec779483f93c4d74d92d60109f3a681565b6102d46102b236600461101f565b6003546001600160a01b03909116600090815260046020526040902054101590565b6040519015158152602001610156565b61017f7fb54de7d710bb293db28cb644cd1b5e8ed893bb2d85468f8b0e5018b1c1864c8981565b61012e61031936600461101f565b610c60565b610326610cd9565b6003546001600160a01b03861660009081526004602052604090205410156103a65760405162461bcd60e51b815260206004820152602860248201527f5468652063686172697479206f7267616e697a6174696f6e206973206e6f7420604482015267656c696769626c6560c01b60648201526084015b60405180910390fd5b4281116103f55760405162461bcd60e51b815260206004820152601e60248201527f446561646c696e65206d75737420626520696e20746865206675747572650000604482015260640161039d565b600082116104555760405162461bcd60e51b815260206004820152602760248201527f54617267657420616d6f756e74206d7573742062652067726561746572207468604482015266616e207a65726f60c81b606482015260840161039d565b60058054908190600061046783611050565b90915550506040805160e0810182526001600160a01b03888116825260208083018981528385018990526060840188905260006080850181905260a08501889052600160c08601819052878252600690935294909420835181546001600160a01b0319169316929092178255925191929091908201906104e790826110f2565b50604082015160028201906104fc90826110f2565b50606082015160038201556080820151600482015560a0820151600582015560c0909101516006909101805460ff19169115159190911790556040516001600160a01b0387169082907f2ed5f13fbff3630ac8ec2d0779b5c1af5323ce6fa6e8810ce40317252f8733f2906105789089908990899089906111b2565b60405180910390a3505050505050565b600660205260009081526040902080546001820180546001600160a01b0390921692916105b490611069565b80601f01602080910402602001604051908101604052809291908181526020018280546105e090611069565b801561062d5780601f106106025761010080835404028352916020019161062d565b820191906000526020600020905b81548152906001019060200180831161061057829003601f168201915b50505050509080600201805461064290611069565b80601f016020809104026020016040519081016040528092919081815260200182805461066e90611069565b80156106bb5780601f10610690576101008083540402835291602001916106bb565b820191906000526020600020905b81548152906001019060200180831161069e57829003601f168201915b505050506003830154600484015460058501546006909501549394919390925060ff1687565b6001546040516329b42cb560e01b815260009182916001600160a01b03909116906329b42cb59061073a90339087907f60ecd1bdb09484e1247f8c79f400cc78f8ff2b8bc010a2332aba54e28a3339c6906004016111eb565b600060405180830381865afa158015610757573d6000803e3d6000fd5b505050506040513d6000823e601f3d908101601f1916820160405261077f919081019061120f565b905061078a81610d33565b6107949083611286565b6001546040516329b42cb560e01b81529193506000916001600160a01b03909116906329b42cb5906107ee90339088907f13b35f1f951b0047acda6ce2a2e67dfca07ec779483f93c4d74d92d60109f3a6906004016111eb565b600060405180830381865afa15801561080b573d6000803e3d6000fd5b505050506040513d6000823e601f3d908101601f19168201604052610833919081019061120f565b905061083e81610d33565b6108489084611286565b6001546040516329b42cb560e01b81529194506000916001600160a01b03909116906329b42cb5906108a290339089907f3e5f59afb28eefd9525b5a2a3e685a733e99fa16aeacdb37152ea65d9b1b423d906004016111eb565b600060405180830381865afa1580156108bf573d6000803e3d6000fd5b505050506040513d6000823e601f3d908101601f191682016040526108e7919081019061120f565b90506108f281610d4d565b6108fc9085611286565b6001546040516329b42cb560e01b81529195506000916001600160a01b03909116906329b42cb5906109569033908a907fb54de7d710bb293db28cb644cd1b5e8ed893bb2d85468f8b0e5018b1c1864c89906004016111eb565b600060405180830381865afa158015610973573d6000803e3d6000fd5b505050506040513d6000823e601f3d908101601f1916820160405261099b919081019061120f565b90506109a681610d4d565b6109b09086611286565b6001600160a01b0387166000818152600460209081526040918290208490556003549151918410158083529398507f722947cf2ea50e4d2b4771633d4cb3ed1cd2a072d5d388a56f16cc28d49e3058910160405180910390a250505050505050565b60008181526006602081905260409091209081015460ff16610a6f5760405162461bcd60e51b815260206004820152601660248201527543616d706169676e206973206e6f742061637469766560501b604482015260640161039d565b80546001600160a01b03163314610ad45760405162461bcd60e51b815260206004820152602360248201527f4f6e6c792074686520636861726974792063616e2077697468647261772066756044820152626e647360e81b606482015260840161039d565b806003015481600401541015610b2c5760405162461bcd60e51b815260206004820152601960248201527f54617267657420616d6f756e74206e6f74207265616368656400000000000000604482015260640161039d565b42816005015410610b7f5760405162461bcd60e51b815260206004820152601b60248201527f446561646c696e6520686173206e6f7420706173736564207965740000000000604482015260640161039d565b60068101805460ff19169055600254815460048084015460405163a9059cbb60e01b81526001600160a01b0393841692810192909252602482015291169063a9059cbb906044016020604051808303816000875af1158015610be5573d6000803e3d6000fd5b505050506040513d601f19601f82011682018060405250810190610c09919061129e565b50817f318daf69d77e946364e804495b2184222324b99fddeb42ab5fd25a919f596e8c8260040154604051610c4091815260200190565b60405180910390a25050565b610c54610cd9565b610c5e6000610d94565b565b610c68610cd9565b6001600160a01b038116610ccd5760405162461bcd60e51b815260206004820152602660248201527f4f776e61626c653a206e6577206f776e657220697320746865207a65726f206160448201526564647265737360d01b606482015260840161039d565b610cd681610d94565b50565b6000546001600160a01b03163314610c5e5760405162461bcd60e51b815260206004820181905260248201527f4f776e61626c653a2063616c6c6572206973206e6f7420746865206f776e6572604482015260640161039d565b805160009015610d4557506019919050565b506000919050565b805160009015610d4557600082600081518110610d6c57610d6c6112c0565b016020015160f81c90506064610d838260196112d6565b610d8d91906112f5565b9392505050565b600080546001600160a01b038381166001600160a01b0319831681178455604051919092169283917f8be0079c531659141344cd1fd0a4f28419497f9722a3daafe3b4186f6b6457e09190a35050565b80356001600160a01b0381168114610dfb57600080fd5b919050565b634e487b7160e01b600052604160045260246000fd5b604051601f8201601f1916810167ffffffffffffffff81118282101715610e3f57610e3f610e00565b604052919050565b600067ffffffffffffffff821115610e6157610e61610e00565b50601f01601f191660200190565b600082601f830112610e8057600080fd5b8135610e93610e8e82610e47565b610e16565b818152846020838601011115610ea857600080fd5b816020850160208301376000918101602001919091529392505050565b600080600080600060a08688031215610edd57600080fd5b610ee686610de4565b9450602086013567ffffffffffffffff80821115610f0357600080fd5b610f0f89838a01610e6f565b95506040880135915080821115610f2557600080fd5b50610f3288828901610e6f565b9598949750949560608101359550608001359392505050565b600060208284031215610f5d57600080fd5b5035919050565b60005b83811015610f7f578181015183820152602001610f67565b83811115610f8e576000848401525b50505050565b60008151808452610fac816020860160208601610f64565b601f01601f19169290920160200192915050565b6001600160a01b038816815260e060208201819052600090610fe490830189610f94565b8281036040840152610ff68189610f94565b9150508560608301528460808301528360a083015282151560c083015298975050505050505050565b60006020828403121561103157600080fd5b610d8d82610de4565b634e487b7160e01b600052601160045260246000fd5b6000600182016110625761106261103a565b5060010190565b600181811c9082168061107d57607f821691505b60208210810361109d57634e487b7160e01b600052602260045260246000fd5b50919050565b601f8211156110ed57600081815260208120601f850160051c810160208610156110ca5750805b601f850160051c820191505b818110156110e9578281556001016110d6565b5050505b505050565b815167ffffffffffffffff81111561110c5761110c610e00565b6111208161111a8454611069565b846110a3565b602080601f831160018114611155576000841561113d5750858301515b600019600386901b1c1916600185901b1785556110e9565b600085815260208120601f198616915b8281101561118457888601518255948401946001909101908401611165565b50858210156111a25787850151600019600388901b60f8161c191681555b5050505050600190811b01905550565b6080815260006111c56080830187610f94565b82810360208401526111d78187610f94565b604084019590955250506060015292915050565b6001600160a01b039384168152919092166020820152604081019190915260600190565b60006020828403121561122157600080fd5b815167ffffffffffffffff81111561123857600080fd5b8201601f8101841361124957600080fd5b8051611257610e8e82610e47565b81815285602083850101111561126c57600080fd5b61127d826020830160208601610f64565b95945050505050565b600082198211156112995761129961103a565b500190565b6000602082840312156112b057600080fd5b81518015158114610d8d57600080fd5b634e487b7160e01b600052603260045260246000fd5b60008160001904831182151516156112f0576112f061103a565b500290565b60008261131257634e487b7160e01b600052601260045260246000fd5b50049056fea2646970667358221220ad91765f211b504fb499743fdd851169755758c9915c618ed8b091786a7528a564736f6c634300080f0033",
  "devdoc": {
    "kind": "dev",
    "methods": {
      "owner()": {
        "details": "Returns the address of the current owner."
      },
      "renounceOwnership()": {
        "details": "Leaves the contract without owner. It will not be possible to call `onlyOwner` functions anymore. Can only be called by the current owner. NOTE: Renouncing ownership will leave the contract without an owner, thereby removing any functionality that is only available to the owner."
      },
      "transferOwnership(address)": {
        "details": "Transfers ownership of the contract to a new account (`newOwner`). Can only be called by the current owner."
      }
    },
    "version": 1
  },
  "userdoc": {
    "kind": "user",
    "methods": {},
    "version": 1
  },
  "storageLayout": {
    "storage": [
      {
        "astId": 73,
        "contract": "contracts/Multinate.sol:Multinate",
        "label": "_owner",
        "offset": 0,
        "slot": "0",
        "type": "t_address"
      },
      {
        "astId": 3330,
        "contract": "contracts/Multinate.sol:Multinate",
        "label": "attestationStation",
        "offset": 0,
        "slot": "1",
        "type": "t_contract(IAttestationStation)4231"
      },
      {
        "astId": 3333,
        "contract": "contracts/Multinate.sol:Multinate",
        "label": "usdc",
        "offset": 0,
        "slot": "2",
        "type": "t_contract(IERC20)843"
      },
      {
        "astId": 3335,
        "contract": "contracts/Multinate.sol:Multinate",
        "label": "minimumAttestationScore",
        "offset": 0,
        "slot": "3",
        "type": "t_uint256"
      },
      {
        "astId": 3359,
        "contract": "contracts/Multinate.sol:Multinate",
        "label": "charityScores",
        "offset": 0,
        "slot": "4",
        "type": "t_mapping(t_address,t_uint256)"
      },
      {
        "astId": 3377,
        "contract": "contracts/Multinate.sol:Multinate",
        "label": "nextCampaignId",
        "offset": 0,
        "slot": "5",
        "type": "t_uint256"
      },
      {
        "astId": 3382,
        "contract": "contracts/Multinate.sol:Multinate",
        "label": "campaigns",
        "offset": 0,
        "slot": "6",
        "type": "t_mapping(t_uint256,t_struct(Campaign)3374_storage)"
      }
    ],
    "types": {
      "t_address": {
        "encoding": "inplace",
        "label": "address",
        "numberOfBytes": "20"
      },
      "t_address_payable": {
        "encoding": "inplace",
        "label": "address payable",
        "numberOfBytes": "20"
      },
      "t_bool": {
        "encoding": "inplace",
        "label": "bool",
        "numberOfBytes": "1"
      },
      "t_contract(IAttestationStation)4231": {
        "encoding": "inplace",
        "label": "contract IAttestationStation",
        "numberOfBytes": "20"
      },
      "t_contract(IERC20)843": {
        "encoding": "inplace",
        "label": "contract IERC20",
        "numberOfBytes": "20"
      },
      "t_mapping(t_address,t_uint256)": {
        "encoding": "mapping",
        "key": "t_address",
        "label": "mapping(address => uint256)",
        "numberOfBytes": "32",
        "value": "t_uint256"
      },
      "t_mapping(t_uint256,t_struct(Campaign)3374_storage)": {
        "encoding": "mapping",
        "key": "t_uint256",
        "label": "mapping(uint256 => struct Multinate.Campaign)",
        "numberOfBytes": "32",
        "value": "t_struct(Campaign)3374_storage"
      },
      "t_string_storage": {
        "encoding": "bytes",
        "label": "string",
        "numberOfBytes": "32"
      },
      "t_struct(Campaign)3374_storage": {
        "encoding": "inplace",
        "label": "struct Multinate.Campaign",
        "members": [
          {
            "astId": 3361,
            "contract": "contracts/Multinate.sol:Multinate",
            "label": "charity",
            "offset": 0,
            "slot": "0",
            "type": "t_address_payable"
          },
          {
            "astId": 3363,
            "contract": "contracts/Multinate.sol:Multinate",
            "label": "title",
            "offset": 0,
            "slot": "1",
            "type": "t_string_storage"
          },
          {
            "astId": 3365,
            "contract": "contracts/Multinate.sol:Multinate",
            "label": "description",
            "offset": 0,
            "slot": "2",
            "type": "t_string_storage"
          },
          {
            "astId": 3367,
            "contract": "contracts/Multinate.sol:Multinate",
            "label": "targetAmount",
            "offset": 0,
            "slot": "3",
            "type": "t_uint256"
          },
          {
            "astId": 3369,
            "contract": "contracts/Multinate.sol:Multinate",
            "label": "currentAmount",
            "offset": 0,
            "slot": "4",
            "type": "t_uint256"
          },
          {
            "astId": 3371,
            "contract": "contracts/Multinate.sol:Multinate",
            "label": "deadline",
            "offset": 0,
            "slot": "5",
            "type": "t_uint256"
          },
          {
            "astId": 3373,
            "contract": "contracts/Multinate.sol:Multinate",
            "label": "active",
            "offset": 0,
            "slot": "6",
            "type": "t_bool"
          }
        ],
        "numberOfBytes": "224"
      },
      "t_uint256": {
        "encoding": "inplace",
        "label": "uint256",
        "numberOfBytes": "32"
      }
    }
  }
}