{
  "address": "0x03cC5dcefBc0921FF285cFBE84Ce15d1359111Bc",
  "abi": [
    {
      "inputs": [
        {
          "internalType": "address",
          "name": "_usdcToken",
          "type": "address"
        },
        {
          "internalType": "address",
          "name": "_hypUSDCToken",
          "type": "address"
        },
        {
          "internalType": "address",
          "name": "_uniswapRouter",
          "type": "address"
        },
        {
          "internalType": "address",
          "name": "_multinate",
          "type": "address"
        },
        {
          "internalType": "uint32",
          "name": "_chainId",
          "type": "uint32"
        }
      ],
      "stateMutability": "nonpayable",
      "type": "constructor"
    },
    {
      "anonymous": false,
      "inputs": [
        {
          "indexed": true,
          "internalType": "address",
          "name": "donor",
          "type": "address"
        },
        {
          "indexed": true,
          "internalType": "address",
          "name": "token",
          "type": "address"
        },
        {
          "indexed": false,
          "internalType": "uint256",
          "name": "amount",
          "type": "uint256"
        }
      ],
      "name": "DonationReceived",
      "type": "event"
    },
    {
      "anonymous": false,
      "inputs": [
        {
          "indexed": true,
          "internalType": "address",
          "name": "donor",
          "type": "address"
        },
        {
          "indexed": false,
          "internalType": "uint256",
          "name": "amount",
          "type": "uint256"
        }
      ],
      "name": "DonationReceivedETH",
      "type": "event"
    },
    {
      "anonymous": false,
      "inputs": [
        {
          "indexed": true,
          "internalType": "address",
          "name": "previousOwner",
          "type": "address"
        },
        {
          "indexed": true,
          "internalType": "address",
          "name": "newOwner",
          "type": "address"
        }
      ],
      "name": "OwnershipTransferred",
      "type": "event"
    },
    {
      "anonymous": false,
      "inputs": [
        {
          "indexed": true,
          "internalType": "address",
          "name": "token",
          "type": "address"
        },
        {
          "indexed": false,
          "internalType": "uint256",
          "name": "amountIn",
          "type": "uint256"
        },
        {
          "indexed": false,
          "internalType": "uint256",
          "name": "amountOut",
          "type": "uint256"
        }
      ],
      "name": "Swapped",
      "type": "event"
    },
    {
      "inputs": [
        {
          "internalType": "address",
          "name": "addr",
          "type": "address"
        }
      ],
      "name": "addressToBytes32",
      "outputs": [
        {
          "internalType": "bytes32",
          "name": "",
          "type": "bytes32"
        }
      ],
      "stateMutability": "pure",
      "type": "function"
    },
    {
      "inputs": [],
      "name": "chainId",
      "outputs": [
        {
          "internalType": "uint32",
          "name": "",
          "type": "uint32"
        }
      ],
      "stateMutability": "view",
      "type": "function"
    },
    {
      "inputs": [
        {
          "internalType": "address",
          "name": "_token",
          "type": "address"
        },
        {
          "internalType": "uint256",
          "name": "_amount",
          "type": "uint256"
        },
        {
          "internalType": "uint256",
          "name": "_campaignId",
          "type": "uint256"
        }
      ],
      "name": "donate",
      "outputs": [],
      "stateMutability": "payable",
      "type": "function"
    },
    {
      "inputs": [
        {
          "internalType": "uint256",
          "name": "_campaignId",
          "type": "uint256"
        }
      ],
      "name": "donateETH",
      "outputs": [],
      "stateMutability": "payable",
      "type": "function"
    },
    {
      "inputs": [],
      "name": "hypUSDCToken",
      "outputs": [
        {
          "internalType": "address",
          "name": "",
          "type": "address"
        }
      ],
      "stateMutability": "view",
      "type": "function"
    },
    {
      "inputs": [],
      "name": "multinate",
      "outputs": [
        {
          "internalType": "address",
          "name": "",
          "type": "address"
        }
      ],
      "stateMutability": "view",
      "type": "function"
    },
    {
      "inputs": [],
      "name": "owner",
      "outputs": [
        {
          "internalType": "address",
          "name": "",
          "type": "address"
        }
      ],
      "stateMutability": "view",
      "type": "function"
    },
    {
      "inputs": [],
      "name": "renounceOwnership",
      "outputs": [],
      "stateMutability": "nonpayable",
      "type": "function"
    },
    {
      "inputs": [
        {
          "internalType": "uint32",
          "name": "_chainId",
          "type": "uint32"
        }
      ],
      "name": "setChainId",
      "outputs": [],
      "stateMutability": "nonpayable",
      "type": "function"
    },
    {
      "inputs": [
        {
          "internalType": "address",
          "name": "_hypUSDCToken",
          "type": "address"
        }
      ],
      "name": "setHypUSDCToken",
      "outputs": [],
      "stateMutability": "nonpayable",
      "type": "function"
    },
    {
      "inputs": [
        {
          "internalType": "address",
          "name": "_multinate",
          "type": "address"
        }
      ],
      "name": "setMultinate",
      "outputs": [],
      "stateMutability": "nonpayable",
      "type": "function"
    },
    {
      "inputs": [
        {
          "internalType": "address",
          "name": "_uniswapRouter",
          "type": "address"
        }
      ],
      "name": "setUniswapRouter",
      "outputs": [],
      "stateMutability": "nonpayable",
      "type": "function"
    },
    {
      "inputs": [
        {
          "internalType": "address",
          "name": "_usdcToken",
          "type": "address"
        }
      ],
      "name": "setUsdcToken",
      "outputs": [],
      "stateMutability": "nonpayable",
      "type": "function"
    },
    {
      "inputs": [
        {
          "internalType": "address",
          "name": "newOwner",
          "type": "address"
        }
      ],
      "name": "transferOwnership",
      "outputs": [],
      "stateMutability": "nonpayable",
      "type": "function"
    },
    {
      "inputs": [],
      "name": "uniswapRouter",
      "outputs": [
        {
          "internalType": "contract IPancakeRouter02",
          "name": "",
          "type": "address"
        }
      ],
      "stateMutability": "view",
      "type": "function"
    },
    {
      "inputs": [],
      "name": "usdcToken",
      "outputs": [
        {
          "internalType": "address",
          "name": "",
          "type": "address"
        }
      ],
      "stateMutability": "view",
      "type": "function"
    }
  ],
  "transactionHash": "0xd2e7c16c2976edcb974f18caf6661aceec930f022ebcc5ffd84b7bfcc0702f0f",
  "args": [
    "0x07A583000b1C86b159e065D16c05fbD5A14f92A8",
    "0x77f359C9e1F5a1264B931fca77523d99a7807b50",
    "0x2d3d6f3d638f81fD6e919Dc34F04ccd6f59B718b",
    "0xddF51C4e20A05733a24837684b95626B7422d4Df",
    "100"
  ],
  "numDeployments": 1,
  "solcInputHash": "a4a3dcca41c15d2775035a477e59c957",
  "bytecode": "0x6080604052600580546001600160a01b03199081167335231d4c2d8b8adcb5617a638a0c4548684c7c7017909155600680549091167356f52c0a1ddcd557285f7cbc782d3d83096ce1cc1790553480156200005957600080fd5b5060405162001573380380620015738339810160408190526200007c916200015f565b6200008733620000f2565b600180546001600160a01b039687166001600160a01b03199182161790915560028054958716958216959095179094556003805463ffffffff909216600160a01b026001600160c01b03199092169286169290921717905560048054919093169116179055620001db565b600080546001600160a01b038381166001600160a01b0319831681178455604051919092169283917f8be0079c531659141344cd1fd0a4f28419497f9722a3daafe3b4186f6b6457e09190a35050565b80516001600160a01b03811681146200015a57600080fd5b919050565b600080600080600060a086880312156200017857600080fd5b620001838662000142565b9450620001936020870162000142565b9350620001a36040870162000142565b9250620001b36060870162000142565b9150608086015163ffffffff81168114620001cd57600080fd5b809150509295509295909350565b61138880620001eb6000396000f3fe6080604052600436106100f35760003560e01c80639a8a05921161008a578063d463227611610059578063d463227614610323578063e0964d1214610336578063efe75d8214610373578063f2fde38b1461039357600080fd5b80639a8a059214610259578063a179f12414610292578063ab83f98a146102d3578063bea9849e146102e657600080fd5b806382c947b7116100c657806382c947b7146101a9578063852759f2146101de5780638da5cb5b1461021b57806393f1a5f91461023957600080fd5b806311eac855146100f85780635d886f2214610135578063715018a614610174578063735de9f714610189575b600080fd5b34801561010457600080fd5b50600154610118906001600160a01b031681565b6040516001600160a01b0390911681526020015b60405180910390f35b34801561014157600080fd5b50610172610150366004611014565b600180546001600160a01b0319166001600160a01b0392909216919091179055565b005b34801561018057600080fd5b506101726103b3565b34801561019557600080fd5b50600454610118906001600160a01b031681565b3480156101b557600080fd5b506101d06101c4366004611014565b6001600160a01b031690565b60405190815260200161012c565b3480156101ea57600080fd5b506101726101f9366004611014565b600280546001600160a01b0319166001600160a01b0392909216919091179055565b34801561022757600080fd5b506000546001600160a01b0316610118565b34801561024557600080fd5b50600254610118906001600160a01b031681565b34801561026557600080fd5b5060035461027d90600160a01b900463ffffffff1681565b60405163ffffffff909116815260200161012c565b34801561029e57600080fd5b506101726102ad366004611038565b6003805463ffffffff909216600160a01b0263ffffffff60a01b19909216919091179055565b6101726102e136600461105e565b6103c7565b3480156102f257600080fd5b50610172610301366004611014565b600480546001600160a01b0319166001600160a01b0392909216919091179055565b610172610331366004611077565b610713565b34801561034257600080fd5b50610172610351366004611014565b600380546001600160a01b0319166001600160a01b0392909216919091179055565b34801561037f57600080fd5b50600354610118906001600160a01b031681565b34801561039f57600080fd5b506101726103ae366004611014565b610a94565b6103bb610b0d565b6103c56000610b67565b565b662386f26fc1000034116104145760405162461bcd60e51b815260206004820152600f60248201526e139bc8115512081c9958d95a5d9959608a1b60448201526064015b60405180910390fd5b60405134815260009033907f509fb5d764cf5e98b9f02a3d86350f8085cedb516140098d2d6fc2eb6256ac249060200160405180910390a36000610467610462662386f26fc10000346110c2565b610bb7565b600354909150600160a01b900463ffffffff16606414610674576002546003546001600160a01b03918216916381b4e8b491662386f26fc1000091600160a01b820463ffffffff1691166104c2662386f26fc10000346110c2565b6040516001600160e01b031960e087901b16815263ffffffff9390931660048401526024830191909152604482015260640160206040518083038185885af1158015610512573d6000803e3d6000fd5b50505050506040513d601f19601f8201168201806040525081019061053791906110d9565b5060055460035460408051336020820152808201869052606080820186905282518083039091018152608082019283905263fa31de0160e01b9092526000936001600160a01b039081169363fa31de01936105a69363ffffffff600160a01b84041693909216916084016110f2565b6020604051808303816000875af11580156105c5573d6000803e3d6000fd5b505050506040513d601f19601f820116820180604052508101906105e991906110d9565b600654600354604051630237e58360e31b815260048101849052600160a01b90910463ffffffff16602482015261c35060448201523360648201529192506001600160a01b0316906311bf2c189034906084016000604051808303818588803b15801561065557600080fd5b505af1158015610669573d6000803e3d6000fd5b5050505050506106da565b60035460405163066ea9fb60e11b815260048101849052602481018390526001600160a01b0390911690630cdd53f690604401600060405180830381600087803b1580156106c157600080fd5b505af11580156106d5573d6000803e3d6000fd5b505050505b60405181815233907f1a24012c92bf6e7e16324dcf8754118d85847c33b1a9c9b7d44b650652d4b4119060200160405180910390a25050565b6040516323b872dd60e01b81523360048201523060248201526044810183905283906001600160a01b038216906323b872dd906064016020604051808303816000875af1158015610768573d6000803e3d6000fd5b505050506040513d601f19601f8201168201806040525081019061078c919061115c565b6107ca5760405162461bcd60e51b815260206004820152600f60248201526e151c985b9cd9995c8819985a5b1959608a1b604482015260640161040b565b6001546000906001600160a01b038681169116146107ef576107ec8585610dd2565b90505b600354600160a01b900463ffffffff166064146109e7576002546003546001600160a01b03918216916381b4e8b491662386f26fc1000091600160a01b820463ffffffff1691166040516001600160e01b031960e086901b16815263ffffffff92909216600483015260248201526044810188905260640160206040518083038185885af1158015610885573d6000803e3d6000fd5b50505050506040513d601f19601f820116820180604052508101906108aa91906110d9565b5060055460035460408051336020820152808201879052606080820186905282518083039091018152608082019283905263fa31de0160e01b9092526000936001600160a01b039081169363fa31de01936109199363ffffffff600160a01b84041693909216916084016110f2565b6020604051808303816000875af1158015610938573d6000803e3d6000fd5b505050506040513d601f19601f8201168201806040525081019061095c91906110d9565b600654600354604051630237e58360e31b815260048101849052600160a01b90910463ffffffff16602482015261c35060448201523360648201529192506001600160a01b0316906311bf2c189034906084016000604051808303818588803b1580156109c857600080fd5b505af11580156109dc573d6000803e3d6000fd5b505050505050610a4d565b60035460405163066ea9fb60e11b815260048101859052602481018390526001600160a01b0390911690630cdd53f690604401600060405180830381600087803b158015610a3457600080fd5b505af1158015610a48573d6000803e3d6000fd5b505050505b6040518181526001600160a01b0386169033907f509fb5d764cf5e98b9f02a3d86350f8085cedb516140098d2d6fc2eb6256ac249060200160405180910390a35050505050565b610a9c610b0d565b6001600160a01b038116610b015760405162461bcd60e51b815260206004820152602660248201527f4f776e61626c653a206e6577206f776e657220697320746865207a65726f206160448201526564647265737360d01b606482015260840161040b565b610b0a81610b67565b50565b6000546001600160a01b031633146103c55760405162461bcd60e51b815260206004820181905260248201527f4f776e61626c653a2063616c6c6572206973206e6f7420746865206f776e6572604482015260640161040b565b600080546001600160a01b038381166001600160a01b0319831681178455604051919092169283917f8be0079c531659141344cd1fd0a4f28419497f9722a3daafe3b4186f6b6457e09190a35050565b600080610bc64261025861117e565b6040805160028082526060820183529293506000929091602083019080368337505060048054604080516315ab88c960e31b815290519495506001600160a01b039091169363ad5c46489350818301926020928290030181865afa158015610c32573d6000803e3d6000fd5b505050506040513d601f19601f82011682018060405250810190610c5691906111ac565b81600081518110610c6957610c696111c9565b6001600160a01b0392831660209182029290920101526001805483519216918391908110610c9957610c996111c9565b6001600160a01b03928316602091820292909201015260048054604051637ff36ab560e01b81526000939190911691637ff36ab5918891610ce391600191889130918b9101611223565b60006040518083038185885af1158015610d01573d6000803e3d6000fd5b50505050506040513d6000823e601f3d908101601f19168201604052610d2a9190810190611258565b905060006001600160a01b03167f3a9a9f34f5831e9c8ecb66ab3aa308b2ff31eaca434615f6c9cadc656a9af71c82600081518110610d6b57610d6b6111c9565b602002602001015183600181518110610d8657610d866111c9565b6020026020010151604051610da5929190918252602082015260400190565b60405180910390a280600181518110610dc057610dc06111c9565b60200260200101519350505050919050565b60008281610de24261025861117e565b6004805460405163095ea7b360e01b81526001600160a01b0391821692810192909252602482018790529192509083169063095ea7b3906044016020604051808303816000875af1158015610e3b573d6000803e3d6000fd5b505050506040513d601f19601f82011682018060405250810190610e5f919061115c565b506040805160028082526060820183526000926020830190803683370190505090508581600081518110610e9557610e956111c9565b6001600160a01b0392831660209182029290920101526001805483519216918391908110610ec557610ec56111c9565b6001600160a01b039283166020918202929092010152600480546040516338ed173960e01b815260009391909116916338ed173991610f0f918a91600191889130918b9101611316565b6000604051808303816000875af1158015610f2e573d6000803e3d6000fd5b505050506040513d6000823e601f3d908101601f19168201604052610f569190810190611258565b9050866001600160a01b03167f3a9a9f34f5831e9c8ecb66ab3aa308b2ff31eaca434615f6c9cadc656a9af71c82600081518110610f9657610f966111c9565b602002602001015183600181518110610fb157610fb16111c9565b6020026020010151604051610fd0929190918252602082015260400190565b60405180910390a280600181518110610feb57610feb6111c9565b602002602001015194505050505092915050565b6001600160a01b0381168114610b0a57600080fd5b60006020828403121561102657600080fd5b813561103181610fff565b9392505050565b60006020828403121561104a57600080fd5b813563ffffffff8116811461103157600080fd5b60006020828403121561107057600080fd5b5035919050565b60008060006060848603121561108c57600080fd5b833561109781610fff565b95602085013595506040909401359392505050565b634e487b7160e01b600052601160045260246000fd5b6000828210156110d4576110d46110ac565b500390565b6000602082840312156110eb57600080fd5b5051919050565b63ffffffff8416815260006020848184015260606040840152835180606085015260005b8181101561113257858101830151858201608001528201611116565b81811115611144576000608083870101525b50601f01601f19169290920160800195945050505050565b60006020828403121561116e57600080fd5b8151801515811461103157600080fd5b60008219821115611191576111916110ac565b500190565b634e487b7160e01b600052604160045260246000fd5b6000602082840312156111be57600080fd5b815161103181610fff565b634e487b7160e01b600052603260045260246000fd5b600081518084526020808501945080840160005b838110156112185781516001600160a01b0316875295820195908201906001016111f3565b509495945050505050565b84815260806020820152600061123c60808301866111df565b6001600160a01b03949094166040830152506060015292915050565b6000602080838503121561126b57600080fd5b825167ffffffffffffffff8082111561128357600080fd5b818501915085601f83011261129757600080fd5b8151818111156112a9576112a9611196565b8060051b604051601f19603f830116810181811085821117156112ce576112ce611196565b6040529182528482019250838101850191888311156112ec57600080fd5b938501935b8285101561130a578451845293850193928501926112f1565b98975050505050505050565b85815284602082015260a06040820152600061133560a08301866111df565b6001600160a01b039490941660608301525060800152939250505056fea2646970667358221220913e27074dbdcf827f294f372b8e740104e68e8eec7fa79242f0840f48992f6164736f6c634300080f0033",
  "devdoc": {
    "kind": "dev",
    "methods": {
      "owner()": {
        "details": "Returns the address of the current owner."
      },
      "renounceOwnership()": {
        "details": "Leaves the contract without owner. It will not be possible to call `onlyOwner` functions anymore. Can only be called by the current owner. NOTE: Renouncing ownership will leave the contract without an owner, thereby removing any functionality that is only available to the owner."
      },
      "transferOwnership(address)": {
        "details": "Transfers ownership of the contract to a new account (`newOwner`). Can only be called by the current owner."
      }
    },
    "version": 1
  },
  "userdoc": {
    "kind": "user",
    "methods": {},
    "version": 1
  },
  "storageLayout": {
    "storage": [
      {
        "astId": 119,
        "contract": "contracts/SwapManager.sol:SwapManager",
        "label": "_owner",
        "offset": 0,
        "slot": "0",
        "type": "t_address"
      },
      {
        "astId": 653,
        "contract": "contracts/SwapManager.sol:SwapManager",
        "label": "usdcToken",
        "offset": 0,
        "slot": "1",
        "type": "t_address"
      },
      {
        "astId": 655,
        "contract": "contracts/SwapManager.sol:SwapManager",
        "label": "hypUSDCToken",
        "offset": 0,
        "slot": "2",
        "type": "t_address"
      },
      {
        "astId": 657,
        "contract": "contracts/SwapManager.sol:SwapManager",
        "label": "multinate",
        "offset": 0,
        "slot": "3",
        "type": "t_address"
      },
      {
        "astId": 659,
        "contract": "contracts/SwapManager.sol:SwapManager",
        "label": "chainId",
        "offset": 20,
        "slot": "3",
        "type": "t_uint32"
      },
      {
        "astId": 662,
        "contract": "contracts/SwapManager.sol:SwapManager",
        "label": "uniswapRouter",
        "offset": 0,
        "slot": "4",
        "type": "t_contract(IPancakeRouter02)1598"
      },
      {
        "astId": 668,
        "contract": "contracts/SwapManager.sol:SwapManager",
        "label": "mailbox",
        "offset": 0,
        "slot": "5",
        "type": "t_contract(IMailbox)111"
      },
      {
        "astId": 674,
        "contract": "contracts/SwapManager.sol:SwapManager",
        "label": "igp",
        "offset": 0,
        "slot": "6",
        "type": "t_contract(IInterchainGasPaymaster)32"
      }
    ],
    "types": {
      "t_address": {
        "encoding": "inplace",
        "label": "address",
        "numberOfBytes": "20"
      },
      "t_contract(IInterchainGasPaymaster)32": {
        "encoding": "inplace",
        "label": "contract IInterchainGasPaymaster",
        "numberOfBytes": "20"
      },
      "t_contract(IMailbox)111": {
        "encoding": "inplace",
        "label": "contract IMailbox",
        "numberOfBytes": "20"
      },
      "t_contract(IPancakeRouter02)1598": {
        "encoding": "inplace",
        "label": "contract IPancakeRouter02",
        "numberOfBytes": "20"
      },
      "t_uint32": {
        "encoding": "inplace",
        "label": "uint32",
        "numberOfBytes": "4"
      }
    }
  }
}